{
  "contractName": "Bloodtoken",
  "abi": [
    {
      "anonymous": false,
      "inputs": [
        {
          "indexed": false,
          "internalType": "uint256",
          "name": "id",
          "type": "uint256"
        },
        {
          "indexed": false,
          "internalType": "string",
          "name": "newOwner",
          "type": "string"
        },
        {
          "indexed": false,
          "internalType": "uint256",
          "name": "verified",
          "type": "uint256"
        },
        {
          "indexed": false,
          "internalType": "string",
          "name": "status",
          "type": "string"
        }
      ],
      "name": "BloodTransfer",
      "type": "event"
    },
    {
      "anonymous": false,
      "inputs": [
        {
          "indexed": false,
          "internalType": "uint256",
          "name": "id",
          "type": "uint256"
        },
        {
          "indexed": false,
          "internalType": "string",
          "name": "curr_owner",
          "type": "string"
        },
        {
          "indexed": false,
          "internalType": "string",
          "name": "curr_owner_add",
          "type": "string"
        },
        {
          "indexed": false,
          "internalType": "uint256",
          "name": "verified",
          "type": "uint256"
        }
      ],
      "name": "BloodUnitCreate",
      "type": "event"
    },
    {
      "inputs": [
        {
          "internalType": "uint256",
          "name": "",
          "type": "uint256"
        }
      ],
      "name": "BloodStore",
      "outputs": [
        {
          "internalType": "uint256",
          "name": "id",
          "type": "uint256"
        },
        {
          "internalType": "string",
          "name": "uniqueid",
          "type": "string"
        },
        {
          "internalType": "string",
          "name": "aadhar",
          "type": "string"
        },
        {
          "internalType": "string",
          "name": "blood_group",
          "type": "string"
        },
        {
          "internalType": "string",
          "name": "expiry_date",
          "type": "string"
        },
        {
          "internalType": "uint256",
          "name": "statusCount",
          "type": "uint256"
        },
        {
          "internalType": "bool",
          "name": "exists",
          "type": "bool"
        }
      ],
      "stateMutability": "view",
      "type": "function",
      "constant": true
    },
    {
      "inputs": [
        {
          "internalType": "address",
          "name": "",
          "type": "address"
        }
      ],
      "name": "UserStore",
      "outputs": [
        {
          "internalType": "address payable",
          "name": "user_address",
          "type": "address"
        },
        {
          "internalType": "string",
          "name": "email",
          "type": "string"
        },
        {
          "internalType": "string",
          "name": "password",
          "type": "string"
        },
        {
          "internalType": "string",
          "name": "name",
          "type": "string"
        },
        {
          "internalType": "string",
          "name": "addressUser",
          "type": "string"
        },
        {
          "internalType": "string",
          "name": "coords",
          "type": "string"
        },
        {
          "internalType": "string",
          "name": "typeID",
          "type": "string"
        },
        {
          "internalType": "bool",
          "name": "exists",
          "type": "bool"
        }
      ],
      "stateMutability": "view",
      "type": "function",
      "constant": true
    },
    {
      "inputs": [],
      "name": "bloodCount",
      "outputs": [
        {
          "internalType": "uint256",
          "name": "",
          "type": "uint256"
        }
      ],
      "stateMutability": "view",
      "type": "function",
      "constant": true
    },
    {
      "inputs": [
        {
          "internalType": "string",
          "name": "",
          "type": "string"
        }
      ],
      "name": "idToBloodId",
      "outputs": [
        {
          "internalType": "uint256",
          "name": "",
          "type": "uint256"
        }
      ],
      "stateMutability": "view",
      "type": "function",
      "constant": true
    },
    {
      "inputs": [],
      "name": "userCount",
      "outputs": [
        {
          "internalType": "uint256",
          "name": "",
          "type": "uint256"
        }
      ],
      "stateMutability": "view",
      "type": "function",
      "constant": true
    },
    {
      "inputs": [
        {
          "internalType": "string",
          "name": "_uniqueid",
          "type": "string"
        },
        {
          "internalType": "string",
          "name": "_aadhar",
          "type": "string"
        },
        {
          "internalType": "string",
          "name": "_blood_group",
          "type": "string"
        },
        {
          "internalType": "string",
          "name": "_expiry_date",
          "type": "string"
        },
        {
          "internalType": "string",
          "name": "_cur_owner",
          "type": "string"
        },
        {
          "internalType": "string",
          "name": "_cur_owner_address",
          "type": "string"
        }
      ],
      "name": "addBloodUnit",
      "outputs": [],
      "stateMutability": "nonpayable",
      "type": "function"
    },
    {
      "inputs": [
        {
          "internalType": "string",
          "name": "_id",
          "type": "string"
        }
      ],
      "name": "bloodExist",
      "outputs": [
        {
          "internalType": "bool",
          "name": "",
          "type": "bool"
        }
      ],
      "stateMutability": "view",
      "type": "function",
      "constant": true
    },
    {
      "inputs": [
        {
          "internalType": "uint256",
          "name": "_id",
          "type": "uint256"
        }
      ],
      "name": "getBloodData",
      "outputs": [
        {
          "internalType": "string",
          "name": "",
          "type": "string"
        },
        {
          "internalType": "string",
          "name": "",
          "type": "string"
        },
        {
          "internalType": "string",
          "name": "",
          "type": "string"
        },
        {
          "internalType": "string",
          "name": "",
          "type": "string"
        }
      ],
      "stateMutability": "view",
      "type": "function",
      "constant": true
    },
    {
      "inputs": [
        {
          "internalType": "uint256",
          "name": "_id",
          "type": "uint256"
        }
      ],
      "name": "getBloodStatusCount",
      "outputs": [
        {
          "internalType": "uint256",
          "name": "",
          "type": "uint256"
        }
      ],
      "stateMutability": "view",
      "type": "function",
      "constant": true
    },
    {
      "inputs": [
        {
          "internalType": "uint256",
          "name": "_id",
          "type": "uint256"
        },
        {
          "internalType": "string",
          "name": "_oldUser",
          "type": "string"
        },
        {
          "internalType": "uint256",
          "name": "verified",
          "type": "uint256"
        },
        {
          "internalType": "string",
          "name": "_status",
          "type": "string"
        },
        {
          "internalType": "string",
          "name": "_newUser",
          "type": "string"
        }
      ],
      "name": "transferAsset",
      "outputs": [],
      "stateMutability": "nonpayable",
      "type": "function"
    },
    {
      "inputs": [],
      "name": "getBloodCount",
      "outputs": [
        {
          "internalType": "uint256",
          "name": "",
          "type": "uint256"
        }
      ],
      "stateMutability": "view",
      "type": "function",
      "constant": true
    },
    {
      "inputs": [
        {
          "internalType": "uint256",
          "name": "_id",
          "type": "uint256"
        },
        {
          "internalType": "uint256",
          "name": "_status_count",
          "type": "uint256"
        }
      ],
      "name": "getBloodStatus",
      "outputs": [
        {
          "internalType": "uint256",
          "name": "",
          "type": "uint256"
        },
        {
          "internalType": "string",
          "name": "",
          "type": "string"
        },
        {
          "internalType": "string",
          "name": "",
          "type": "string"
        },
        {
          "internalType": "uint256",
          "name": "",
          "type": "uint256"
        }
      ],
      "stateMutability": "view",
      "type": "function",
      "constant": true
    },
    {
      "inputs": [
        {
          "internalType": "address payable",
          "name": "user_address",
          "type": "address"
        }
      ],
      "name": "getIdentity",
      "outputs": [
        {
          "internalType": "bool",
          "name": "",
          "type": "bool"
        }
      ],
      "stateMutability": "view",
      "type": "function",
      "constant": true
    },
    {
      "inputs": [
        {
          "internalType": "string",
          "name": "_name",
          "type": "string"
        },
        {
          "internalType": "address payable",
          "name": "user_address",
          "type": "address"
        },
        {
          "internalType": "string",
          "name": "_email",
          "type": "string"
        },
        {
          "internalType": "string",
          "name": "_password",
          "type": "string"
        },
        {
          "internalType": "string",
          "name": "_address",
          "type": "string"
        },
        {
          "internalType": "string",
          "name": "_coords",
          "type": "string"
        },
        {
          "internalType": "string",
          "name": "_typeID",
          "type": "string"
        }
      ],
      "name": "addIdentity",
      "outputs": [],
      "stateMutability": "nonpayable",
      "type": "function"
    },
    {
      "inputs": [
        {
          "internalType": "address payable",
          "name": "_user_add",
          "type": "address"
        },
        {
          "internalType": "string",
          "name": "_email",
          "type": "string"
        },
        {
          "internalType": "string",
          "name": "_password",
          "type": "string"
        }
      ],
      "name": "isloginValid",
      "outputs": [
        {
          "internalType": "string",
          "name": "",
          "type": "string"
        }
      ],
      "stateMutability": "view",
      "type": "function",
      "constant": true
    },
    {
      "inputs": [
        {
          "internalType": "address payable",
          "name": "_user_add",
          "type": "address"
        }
      ],
      "name": "getLoginDetails",
      "outputs": [
        {
          "internalType": "string",
          "name": "",
          "type": "string"
        },
        {
          "internalType": "string",
          "name": "",
          "type": "string"
        },
        {
          "internalType": "string",
          "name": "",
          "type": "string"
        },
        {
          "internalType": "string",
          "name": "",
          "type": "string"
        }
      ],
      "stateMutability": "view",
      "type": "function",
      "constant": true
    },
    {
      "inputs": [],
      "name": "getUserCount",
      "outputs": [
        {
          "internalType": "uint256",
          "name": "",
          "type": "uint256"
        }
      ],
      "stateMutability": "view",
      "type": "function",
      "constant": true
    }
  ],
  "bytecode": "0x60806040526000600255600060045534801561001a57600080fd5b50612bbd8061002a6000396000f3fe608060405234801561001057600080fd5b506004361061010b5760003560e01c806369978f26116100a2578063acfabc1111610071578063acfabc1114610314578063b5cb15f714610330578063b6e857c61461034e578063c615a13f1461036c578063c88b53a51461039c5761010b565b806369978f261461026257806374b5d2a61461027e5780637691e990146102b1578063887beac1146102e45761010b565b80632fea7b81116100de5780632fea7b81146101ad5780634a544537146101dd57806351f650e6146102145780636272e294146102325761010b565b8063074360901461011057806307973ccf146101405780630c9e861a1461015e578063255d7fba14610191575b600080fd5b61012a60048036038101906101259190611d4f565b6103d2565b6040516101379190611e59565b60405180910390f35b6101486106d6565b6040516101559190611e94565b60405180910390f35b61017860048036038101906101739190611edb565b6106dc565b6040516101889493929190611f1b565b60405180910390f35b6101ab60048036038101906101a69190611f6e565b610875565b005b6101c760048036038101906101c291906120a3565b610a9d565b6040516101d491906120eb565b60405180910390f35b6101f760048036038101906101f29190612144565b610b07565b60405161020b989796959493929190612180565b60405180910390f35b61021c610eac565b6040516102299190611e94565b60405180910390f35b61024c60048036038101906102479190612228565b610eb6565b6040516102599190611e94565b60405180910390f35b61027c60048036038101906102779190612255565b610ed5565b005b61029860048036038101906102939190612228565b611076565b6040516102a8949392919061239f565b60405180910390f35b6102cb60048036038101906102c691906120a3565b61130f565b6040516102db949392919061239f565b60405180910390f35b6102fe60048036038101906102f99190612400565b61165c565b60405161030b91906120eb565b60405180910390f35b61032e60048036038101906103299190612449565b6116b7565b005b6103386118ea565b6040516103459190611e94565b60405180910390f35b6103566118f4565b6040516103639190611e94565b60405180910390f35b61038660048036038101906103819190612400565b6118fa565b6040516103939190611e94565b60405180910390f35b6103b660048036038101906103b19190612228565b611928565b6040516103c99796959493929190612518565b60405180910390f35b60606002836040516020016103e791906125df565b604051602081830303815290604052604051610403919061263d565b602060405180830381855afa158015610420573d6000803e3d6000fd5b5050506040513d601f19601f82011682018060405250810190610443919061268a565b6002600360008773ffffffffffffffffffffffffffffffffffffffff1673ffffffffffffffffffffffffffffffffffffffff16815260200190815260200160002060010160405160200161049791906127af565b6040516020818303038152906040526040516104b3919061263d565b602060405180830381855afa1580156104d0573d6000803e3d6000fd5b5050506040513d601f19601f820116820180604052508101906104f3919061268a565b14610535576040518060400160405280600181526020017f310000000000000000000000000000000000000000000000000000000000000081525090506106cf565b60028260405160200161054891906125df565b604051602081830303815290604052604051610564919061263d565b602060405180830381855afa158015610581573d6000803e3d6000fd5b5050506040513d601f19601f820116820180604052508101906105a4919061268a565b6002600360008773ffffffffffffffffffffffffffffffffffffffff1673ffffffffffffffffffffffffffffffffffffffff1681526020019081526020016000206002016040516020016105f891906127af565b604051602081830303815290604052604051610614919061263d565b602060405180830381855afa158015610631573d6000803e3d6000fd5b5050506040513d601f19601f82011682018060405250810190610654919061268a565b14610696576040518060400160405280600181526020017f320000000000000000000000000000000000000000000000000000000000000081525090506106cf565b6040518060400160405280600181526020017f330000000000000000000000000000000000000000000000000000000000000081525090505b9392505050565b60045481565b600060608060008060008088815260200190815260200160002060070160008781526020019081526020016000206040518060800160405290816000820154815260200160018201805461072f906126e6565b80601f016020809104026020016040519081016040528092919081815260200182805461075b906126e6565b80156107a85780601f1061077d576101008083540402835291602001916107a8565b820191906000526020600020905b81548152906001019060200180831161078b57829003601f168201915b505050505081526020016002820180546107c1906126e6565b80601f01602080910402602001604051908101604052809291908181526020018280546107ed906126e6565b801561083a5780601f1061080f5761010080835404028352916020019161083a565b820191906000526020600020905b81548152906001019060200180831161081d57829003601f168201915b505050505081526020016003820154815250509050806000015181602001518260400151836060015194509450945094505092959194509250565b60026000815480929190610888906127f5565b91905055506002546001876040516108a091906125df565b90815260200160405180910390208190555060025460008060025481526020019081526020016000206000018190555085600080600254815260200190815260200160002060010190816108f491906129d4565b50846000806002548152602001908152602001600020600201908161091991906129d4565b50836000806002548152602001908152602001600020600301908161093e91906129d4565b50826000806002548152602001908152602001600020600401908161096391906129d4565b5060016000806002548152602001908152602001600020600501819055506001600080600254815260200190815260200160002060060160006101000a81548160ff02191690831515021790555060405180608001604052804281526020018281526020018381526020016000815250600080600254815260200190815260200160002060070160008060006002548152602001908152602001600020600501548152602001908152602001600020600082015181600001556020820151816001019081610a3191906129d4565b506040820151816002019081610a4791906129d4565b50606082015181600301559050507f644bbbb3f89829fbb21807f317732bef533c7f1dc72733ff91b8a3abfe4c8fda60025483836000604051610a8d9493929190612ae1565b60405180910390a1505050505050565b6000600360008373ffffffffffffffffffffffffffffffffffffffff1673ffffffffffffffffffffffffffffffffffffffff16815260200190815260200160002060070160009054906101000a900460ff1615610afd5760019050610b02565b600090505b919050565b60036020528060005260406000206000915090508060000160009054906101000a900473ffffffffffffffffffffffffffffffffffffffff1690806001018054610b50906126e6565b80601f0160208091040260200160405190810160405280929190818152602001828054610b7c906126e6565b8015610bc95780601f10610b9e57610100808354040283529160200191610bc9565b820191906000526020600020905b815481529060010190602001808311610bac57829003601f168201915b505050505090806002018054610bde906126e6565b80601f0160208091040260200160405190810160405280929190818152602001828054610c0a906126e6565b8015610c575780601f10610c2c57610100808354040283529160200191610c57565b820191906000526020600020905b815481529060010190602001808311610c3a57829003601f168201915b505050505090806003018054610c6c906126e6565b80601f0160208091040260200160405190810160405280929190818152602001828054610c98906126e6565b8015610ce55780601f10610cba57610100808354040283529160200191610ce5565b820191906000526020600020905b815481529060010190602001808311610cc857829003601f168201915b505050505090806004018054610cfa906126e6565b80601f0160208091040260200160405190810160405280929190818152602001828054610d26906126e6565b8015610d735780601f10610d4857610100808354040283529160200191610d73565b820191906000526020600020905b815481529060010190602001808311610d5657829003601f168201915b505050505090806005018054610d88906126e6565b80601f0160208091040260200160405190810160405280929190818152602001828054610db4906126e6565b8015610e015780601f10610dd657610100808354040283529160200191610e01565b820191906000526020600020905b815481529060010190602001808311610de457829003601f168201915b505050505090806006018054610e16906126e6565b80601f0160208091040260200160405190810160405280929190818152602001828054610e42906126e6565b8015610e8f5780601f10610e6457610100808354040283529160200191610e8f565b820191906000526020600020905b815481529060010190602001808311610e7257829003601f168201915b5050505050908060070160009054906101000a900460ff16905088565b6000600254905090565b6000806000838152602001908152602001600020600501549050919050565b60046000815480929190610ee8906127f5565b91905055506040518061010001604052808773ffffffffffffffffffffffffffffffffffffffff16815260200186815260200185815260200188815260200184815260200183815260200182815260200160011515815250600360008873ffffffffffffffffffffffffffffffffffffffff1673ffffffffffffffffffffffffffffffffffffffff16815260200190815260200160002060008201518160000160006101000a81548173ffffffffffffffffffffffffffffffffffffffff021916908373ffffffffffffffffffffffffffffffffffffffff1602179055506020820151816001019081610fdb91906129d4565b506040820151816002019081610ff191906129d4565b50606082015181600301908161100791906129d4565b50608082015181600401908161101d91906129d4565b5060a082015181600501908161103391906129d4565b5060c082015181600601908161104991906129d4565b5060e08201518160070160006101000a81548160ff02191690831515021790555090505050505050505050565b6060806060806000808681526020019081526020016000206001016000808781526020019081526020016000206002016000808881526020019081526020016000206003016000808981526020019081526020016000206004018380546110dc906126e6565b80601f0160208091040260200160405190810160405280929190818152602001828054611108906126e6565b80156111555780601f1061112a57610100808354040283529160200191611155565b820191906000526020600020905b81548152906001019060200180831161113857829003601f168201915b50505050509350828054611168906126e6565b80601f0160208091040260200160405190810160405280929190818152602001828054611194906126e6565b80156111e15780601f106111b6576101008083540402835291602001916111e1565b820191906000526020600020905b8154815290600101906020018083116111c457829003601f168201915b505050505092508180546111f4906126e6565b80601f0160208091040260200160405190810160405280929190818152602001828054611220906126e6565b801561126d5780601f106112425761010080835404028352916020019161126d565b820191906000526020600020905b81548152906001019060200180831161125057829003601f168201915b50505050509150808054611280906126e6565b80601f01602080910402602001604051908101604052809291908181526020018280546112ac906126e6565b80156112f95780601f106112ce576101008083540402835291602001916112f9565b820191906000526020600020905b8154815290600101906020018083116112dc57829003601f168201915b5050505050905093509350935093509193509193565b606080606080600360008673ffffffffffffffffffffffffffffffffffffffff1673ffffffffffffffffffffffffffffffffffffffff168152602001908152602001600020600301600360008773ffffffffffffffffffffffffffffffffffffffff1673ffffffffffffffffffffffffffffffffffffffff168152602001908152602001600020600601600360008873ffffffffffffffffffffffffffffffffffffffff1673ffffffffffffffffffffffffffffffffffffffff168152602001908152602001600020600401600360008973ffffffffffffffffffffffffffffffffffffffff1673ffffffffffffffffffffffffffffffffffffffff168152602001908152602001600020600501838054611429906126e6565b80601f0160208091040260200160405190810160405280929190818152602001828054611455906126e6565b80156114a25780601f10611477576101008083540402835291602001916114a2565b820191906000526020600020905b81548152906001019060200180831161148557829003601f168201915b505050505093508280546114b5906126e6565b80601f01602080910402602001604051908101604052809291908181526020018280546114e1906126e6565b801561152e5780601f106115035761010080835404028352916020019161152e565b820191906000526020600020905b81548152906001019060200180831161151157829003601f168201915b50505050509250818054611541906126e6565b80601f016020809104026020016040519081016040528092919081815260200182805461156d906126e6565b80156115ba5780601f1061158f576101008083540402835291602001916115ba565b820191906000526020600020905b81548152906001019060200180831161159d57829003601f168201915b505050505091508080546115cd906126e6565b80601f01602080910402602001604051908101604052809291908181526020018280546115f9906126e6565b80156116465780601f1061161b57610100808354040283529160200191611646565b820191906000526020600020905b81548152906001019060200180831161162957829003601f168201915b5050505050905093509350935093509193509193565b600080600060018460405161167191906125df565b908152602001604051809103902054815260200190815260200160002060060160009054906101000a900460ff16156116ad57600190506116b2565b600090505b919050565b6002846040516020016116ca91906125df565b6040516020818303038152906040526040516116e6919061263d565b602060405180830381855afa158015611703573d6000803e3d6000fd5b5050506040513d601f19601f82011682018060405250810190611726919061268a565b600260008088815260200190815260200160002060070160008060008a815260200190815260200160002060050154815260200190815260200160002060020160405160200161177691906127af565b604051602081830303815290604052604051611792919061263d565b602060405180830381855afa1580156117af573d6000803e3d6000fd5b5050506040513d601f19601f820116820180604052508101906117d2919061268a565b146117dc57600080fd5b6000808681526020019081526020016000206005016000815480929190611802906127f5565b9190505550604051806080016040528042815260200183815260200182815260200184815250600080878152602001908152602001600020600701600080600089815260200190815260200160002060050154815260200190815260200160002060008201518160000155602082015181600101908161188291906129d4565b50604082015181600201908161189891906129d4565b50606082015181600301559050507f5d821b8b6ce18465607d9c51957a48484030b98fc16bf4b5a700a595f2b2bd6f858285856040516118db9493929190612b34565b60405180910390a15050505050565b6000600454905090565b60025481565b6001818051602081018201805184825260208301602085012081835280955050505050506000915090505481565b6000602052806000526040600020600091509050806000015490806001018054611951906126e6565b80601f016020809104026020016040519081016040528092919081815260200182805461197d906126e6565b80156119ca5780601f1061199f576101008083540402835291602001916119ca565b820191906000526020600020905b8154815290600101906020018083116119ad57829003601f168201915b5050505050908060020180546119df906126e6565b80601f0160208091040260200160405190810160405280929190818152602001828054611a0b906126e6565b8015611a585780601f10611a2d57610100808354040283529160200191611a58565b820191906000526020600020905b815481529060010190602001808311611a3b57829003601f168201915b505050505090806003018054611a6d906126e6565b80601f0160208091040260200160405190810160405280929190818152602001828054611a99906126e6565b8015611ae65780601f10611abb57610100808354040283529160200191611ae6565b820191906000526020600020905b815481529060010190602001808311611ac957829003601f168201915b505050505090806004018054611afb906126e6565b80601f0160208091040260200160405190810160405280929190818152602001828054611b27906126e6565b8015611b745780601f10611b4957610100808354040283529160200191611b74565b820191906000526020600020905b815481529060010190602001808311611b5757829003601f168201915b5050505050908060050154908060060160009054906101000a900460ff16905087565b6000604051905090565b600080fd5b600080fd5b600073ffffffffffffffffffffffffffffffffffffffff82169050919050565b6000611bd682611bab565b9050919050565b611be681611bcb565b8114611bf157600080fd5b50565b600081359050611c0381611bdd565b92915050565b600080fd5b600080fd5b6000601f19601f8301169050919050565b7f4e487b7100000000000000000000000000000000000000000000000000000000600052604160045260246000fd5b611c5c82611c13565b810181811067ffffffffffffffff82111715611c7b57611c7a611c24565b5b80604052505050565b6000611c8e611b97565b9050611c9a8282611c53565b919050565b600067ffffffffffffffff821115611cba57611cb9611c24565b5b611cc382611c13565b9050602081019050919050565b82818337600083830152505050565b6000611cf2611ced84611c9f565b611c84565b905082815260208101848484011115611d0e57611d0d611c0e565b5b611d19848285611cd0565b509392505050565b600082601f830112611d3657611d35611c09565b5b8135611d46848260208601611cdf565b91505092915050565b600080600060608486031215611d6857611d67611ba1565b5b6000611d7686828701611bf4565b935050602084013567ffffffffffffffff811115611d9757611d96611ba6565b5b611da386828701611d21565b925050604084013567ffffffffffffffff811115611dc457611dc3611ba6565b5b611dd086828701611d21565b9150509250925092565b600081519050919050565b600082825260208201905092915050565b60005b83811015611e14578082015181840152602081019050611df9565b60008484015250505050565b6000611e2b82611dda565b611e358185611de5565b9350611e45818560208601611df6565b611e4e81611c13565b840191505092915050565b60006020820190508181036000830152611e738184611e20565b905092915050565b6000819050919050565b611e8e81611e7b565b82525050565b6000602082019050611ea96000830184611e85565b92915050565b611eb881611e7b565b8114611ec357600080fd5b50565b600081359050611ed581611eaf565b92915050565b60008060408385031215611ef257611ef1611ba1565b5b6000611f0085828601611ec6565b9250506020611f1185828601611ec6565b9150509250929050565b6000608082019050611f306000830187611e85565b8181036020830152611f428186611e20565b90508181036040830152611f568185611e20565b9050611f656060830184611e85565b95945050505050565b60008060008060008060c08789031215611f8b57611f8a611ba1565b5b600087013567ffffffffffffffff811115611fa957611fa8611ba6565b5b611fb589828a01611d21565b965050602087013567ffffffffffffffff811115611fd657611fd5611ba6565b5b611fe289828a01611d21565b955050604087013567ffffffffffffffff81111561200357612002611ba6565b5b61200f89828a01611d21565b945050606087013567ffffffffffffffff8111156120305761202f611ba6565b5b61203c89828a01611d21565b935050608087013567ffffffffffffffff81111561205d5761205c611ba6565b5b61206989828a01611d21565b92505060a087013567ffffffffffffffff81111561208a57612089611ba6565b5b61209689828a01611d21565b9150509295509295509295565b6000602082840312156120b9576120b8611ba1565b5b60006120c784828501611bf4565b91505092915050565b60008115159050919050565b6120e5816120d0565b82525050565b600060208201905061210060008301846120dc565b92915050565b600061211182611bab565b9050919050565b61212181612106565b811461212c57600080fd5b50565b60008135905061213e81612118565b92915050565b60006020828403121561215a57612159611ba1565b5b60006121688482850161212f565b91505092915050565b61217a81611bcb565b82525050565b600061010082019050612196600083018b612171565b81810360208301526121a8818a611e20565b905081810360408301526121bc8189611e20565b905081810360608301526121d08188611e20565b905081810360808301526121e48187611e20565b905081810360a08301526121f88186611e20565b905081810360c083015261220c8185611e20565b905061221b60e08301846120dc565b9998505050505050505050565b60006020828403121561223e5761223d611ba1565b5b600061224c84828501611ec6565b91505092915050565b600080600080600080600060e0888a03121561227457612273611ba1565b5b600088013567ffffffffffffffff81111561229257612291611ba6565b5b61229e8a828b01611d21565b97505060206122af8a828b01611bf4565b965050604088013567ffffffffffffffff8111156122d0576122cf611ba6565b5b6122dc8a828b01611d21565b955050606088013567ffffffffffffffff8111156122fd576122fc611ba6565b5b6123098a828b01611d21565b945050608088013567ffffffffffffffff81111561232a57612329611ba6565b5b6123368a828b01611d21565b93505060a088013567ffffffffffffffff81111561235757612356611ba6565b5b6123638a828b01611d21565b92505060c088013567ffffffffffffffff81111561238457612383611ba6565b5b6123908a828b01611d21565b91505092959891949750929550565b600060808201905081810360008301526123b98187611e20565b905081810360208301526123cd8186611e20565b905081810360408301526123e18185611e20565b905081810360608301526123f58184611e20565b905095945050505050565b60006020828403121561241657612415611ba1565b5b600082013567ffffffffffffffff81111561243457612433611ba6565b5b61244084828501611d21565b91505092915050565b600080600080600060a0868803121561246557612464611ba1565b5b600061247388828901611ec6565b955050602086013567ffffffffffffffff81111561249457612493611ba6565b5b6124a088828901611d21565b94505060406124b188828901611ec6565b935050606086013567ffffffffffffffff8111156124d2576124d1611ba6565b5b6124de88828901611d21565b925050608086013567ffffffffffffffff8111156124ff576124fe611ba6565b5b61250b88828901611d21565b9150509295509295909350565b600060e08201905061252d600083018a611e85565b818103602083015261253f8189611e20565b905081810360408301526125538188611e20565b905081810360608301526125678187611e20565b9050818103608083015261257b8186611e20565b905061258a60a0830185611e85565b61259760c08301846120dc565b98975050505050505050565b600081905092915050565b60006125b982611dda565b6125c381856125a3565b93506125d3818560208601611df6565b80840191505092915050565b60006125eb82846125ae565b915081905092915050565b600081519050919050565b600081905092915050565b6000612617826125f6565b6126218185612601565b9350612631818560208601611df6565b80840191505092915050565b6000612649828461260c565b915081905092915050565b6000819050919050565b61266781612654565b811461267257600080fd5b50565b6000815190506126848161265e565b92915050565b6000602082840312156126a05761269f611ba1565b5b60006126ae84828501612675565b91505092915050565b7f4e487b7100000000000000000000000000000000000000000000000000000000600052602260045260246000fd5b600060028204905060018216806126fe57607f821691505b602082108103612711576127106126b7565b5b50919050565b60008190508160005260206000209050919050565b60008154612739816126e6565b61274381866125a3565b9450600182166000811461275e5760018114612773576127a6565b60ff19831686528115158202860193506127a6565b61277c85612717565b60005b8381101561279e5781548189015260018201915060208101905061277f565b838801955050505b50505092915050565b60006127bb828461272c565b915081905092915050565b7f4e487b7100000000000000000000000000000000000000000000000000000000600052601160045260246000fd5b600061280082611e7b565b91507fffffffffffffffffffffffffffffffffffffffffffffffffffffffffffffffff8203612832576128316127c6565b5b600182019050919050565b60006020601f8301049050919050565b600082821b905092915050565b60006008830261288a7fffffffffffffffffffffffffffffffffffffffffffffffffffffffffffffffff8261284d565b612894868361284d565b95508019841693508086168417925050509392505050565b6000819050919050565b60006128d16128cc6128c784611e7b565b6128ac565b611e7b565b9050919050565b6000819050919050565b6128eb836128b6565b6128ff6128f7826128d8565b84845461285a565b825550505050565b600090565b612914612907565b61291f8184846128e2565b505050565b5b818110156129435761293860008261290c565b600181019050612925565b5050565b601f8211156129885761295981612717565b6129628461283d565b81016020851015612971578190505b61298561297d8561283d565b830182612924565b50505b505050565b600082821c905092915050565b60006129ab6000198460080261298d565b1980831691505092915050565b60006129c4838361299a565b9150826002028217905092915050565b6129dd82611dda565b67ffffffffffffffff8111156129f6576129f5611c24565b5b612a0082546126e6565b612a0b828285612947565b600060209050601f831160018114612a3e5760008415612a2c578287015190505b612a3685826129b8565b865550612a9e565b601f198416612a4c86612717565b60005b82811015612a7457848901518255600182019150602085019450602081019050612a4f565b86831015612a915784890151612a8d601f89168261299a565b8355505b6001600288020188555050505b505050505050565b6000819050919050565b6000612acb612ac6612ac184612aa6565b6128ac565b611e7b565b9050919050565b612adb81612ab0565b82525050565b6000608082019050612af66000830187611e85565b8181036020830152612b088186611e20565b90508181036040830152612b1c8185611e20565b9050612b2b6060830184612ad2565b95945050505050565b6000608082019050612b496000830187611e85565b8181036020830152612b5b8186611e20565b9050612b6a6040830185611e85565b8181036060830152612b7c8184611e20565b90509594505050505056fea264697066735822122058dae7fe79eebb8ea14e1bc4d3ee56e9df5cc93b9cf17b27048603456d98366e64736f6c63430008120033",
  "immutableReferences": {},
  "source": "// SPDX-License-Identifier: MIT\r\npragma solidity 0.8.18;\r\n\r\n\r\n\r\ncontract Bloodtoken{\r\n    struct BloodStatus {\r\n        uint256 time; //status time\r\n        string cur_add; // address of current owner\r\n        string owner; // current owner name\r\n        uint256 verified; // 0 for not checked 1 for safe 2 for unsafe\r\n    }\r\n    struct BloodUnit {\r\n        uint256 id; // to fetch in map\r\n        string uniqueid;\r\n        string aadhar;\r\n        string blood_group;\r\n        string expiry_date;\r\n        uint256 statusCount; // keep track of no of status changes\r\n        bool exists;\r\n        mapping(uint256 => BloodStatus) bloodStatus;\r\n    }\r\n\r\n    struct User {\r\n        address payable user_address;\r\n        string email;\r\n        string password;\r\n        string name;\r\n        string addressUser;\r\n        string coords; // coordinates from address\r\n        string typeID;\r\n        bool exists;\r\n    }\r\n\r\n\r\n\r\n\r\n\r\n\r\n    mapping(uint256 => BloodUnit) public BloodStore;\r\n    mapping(string => uint256) public idToBloodId;\r\n    // to store the no of available bloods\r\n    // its public so that we can modify from js\r\n    uint256 public bloodCount = 0;\r\n\r\n    // event to store bloodUnit Creation on Chain\r\n    event BloodUnitCreate(\r\n        uint256 id,\r\n        string curr_owner,\r\n        string curr_owner_add,\r\n        uint256 verified\r\n    );\r\n\r\n    // event to store blood transfer from Blood Bank to Hospital on Chain\r\n    event BloodTransfer(\r\n        uint256 id,\r\n        string newOwner,\r\n        uint256 verified,\r\n        string status\r\n    );\r\n\r\n    // BloodUnit Methods\r\n\r\n    function addBloodUnit(\r\n        string memory _uniqueid,\r\n        string memory _aadhar,\r\n        string memory _blood_group,\r\n        string memory _expiry_date,\r\n        string memory _cur_owner,\r\n        string memory _cur_owner_address // ccordinates\r\n    ) public {\r\n        bloodCount++;\r\n        idToBloodId[_uniqueid] = bloodCount;\r\n        BloodStore[bloodCount].id = bloodCount;\r\n        BloodStore[bloodCount].uniqueid = _uniqueid;\r\n        BloodStore[bloodCount].aadhar = _aadhar;\r\n        BloodStore[bloodCount].blood_group = _blood_group;\r\n        BloodStore[bloodCount].expiry_date = _expiry_date;\r\n        BloodStore[bloodCount].statusCount = 1;\r\n        BloodStore[bloodCount].exists = true;\r\n        BloodStore[bloodCount].bloodStatus[\r\n            BloodStore[bloodCount].statusCount\r\n        ] = BloodStatus(\r\n            block.timestamp,\r\n            _cur_owner_address,\r\n            _cur_owner,\r\n            0\r\n        );\r\n        // save transaction on Chain\r\n        emit BloodUnitCreate(bloodCount, _cur_owner, _cur_owner_address, 0);\r\n    }\r\n\r\n    function bloodExist(string memory _id) public view returns (bool) {\r\n        if (BloodStore[idToBloodId[_id]].exists) return true;\r\n        return false;\r\n    }\r\n\r\n    // give detail about the donor and sample\r\n    function getBloodData(uint256 _id)\r\n        public\r\n        view\r\n        returns (\r\n            string memory,\r\n            string memory,\r\n            string memory,\r\n            string memory\r\n        )\r\n    {\r\n        return (\r\n            BloodStore[_id].uniqueid,\r\n            BloodStore[_id].aadhar,\r\n            BloodStore[_id].blood_group,\r\n            BloodStore[_id].expiry_date\r\n        );\r\n    }\r\n\r\n    //give verification status and no of changes done on this smaple\r\n    function getBloodStatusCount(uint256 _id) public view returns (uint256) {\r\n        return (BloodStore[_id].statusCount);\r\n    }\r\n\r\n    function transferAsset(\r\n        uint256 _id,\r\n        string memory _oldUser,\r\n        uint256 verified,\r\n        string memory _status,\r\n        string memory _newUser\r\n    ) public {\r\n        require(\r\n            sha256(\r\n                abi.encodePacked(\r\n                    (\r\n                        BloodStore[_id]\r\n                            .bloodStatus[BloodStore[_id].statusCount]\r\n                            .owner\r\n                    )\r\n                )\r\n            ) == sha256(abi.encodePacked((_oldUser)))\r\n        );\r\n        BloodStore[_id].statusCount++;\r\n        BloodStore[_id].bloodStatus[\r\n            BloodStore[_id].statusCount\r\n        ] = BloodStatus(\r\n            block.timestamp,\r\n            _status,\r\n            _newUser,\r\n            verified\r\n        );\r\n\r\n        // save tranfer transaction on Chain\r\n        emit BloodTransfer(_id, _newUser, verified, _status);\r\n    }\r\n\r\n    // get total avl bloods\r\n    function getBloodCount() public view returns (uint256) {\r\n        return bloodCount;\r\n    }\r\n\r\n    // Status Methods\r\n\r\n    function getBloodStatus(uint256 _id, uint256 _status_count)\r\n        public\r\n        view\r\n        returns (\r\n            uint256,\r\n            string memory,\r\n            string memory,\r\n            uint256\r\n        )\r\n    {\r\n        // finding status of Blood of given id and status count\r\n        BloodStatus memory tempStatus = BloodStore[_id]\r\n            .bloodStatus[_status_count];\r\n        return (\r\n            tempStatus.time,\r\n            tempStatus.cur_add,\r\n            tempStatus.owner,\r\n            tempStatus.verified\r\n        );\r\n    }\r\n\r\n    // User Methods\r\n\r\n    mapping(address => User) public UserStore;\r\n\r\n    uint256 public userCount = 0;\r\n\r\n    function getIdentity(address payable user_address)\r\n        public\r\n        view\r\n        returns (bool)\r\n    {\r\n        if (UserStore[user_address].exists) return true;\r\n        return false;\r\n    }\r\n\r\n    function addIdentity(\r\n        string memory _name,\r\n        address payable user_address,\r\n        string memory _email,\r\n        string memory _password,\r\n        string memory _address,\r\n        string memory _coords,\r\n        string memory _typeID\r\n    ) public {\r\n        userCount++;\r\n        UserStore[user_address] = User(\r\n            user_address,\r\n            _email,\r\n            _password,\r\n            _name,\r\n            _address,\r\n            _coords,\r\n            _typeID,\r\n            true\r\n        );\r\n    }\r\n\r\n    function isloginValid(\r\n        address payable _user_add,\r\n        string memory _email,\r\n        string memory _password\r\n    ) public view returns (string memory) {\r\n        if (\r\n            sha256(abi.encodePacked((UserStore[_user_add].email))) !=\r\n            sha256(abi.encodePacked((_email)))\r\n        ) {\r\n            return \"1\";\r\n        } else if (\r\n            sha256(abi.encodePacked((UserStore[_user_add].password)))  !=\r\n            sha256(abi.encodePacked((_password)))\r\n        ) {\r\n            return \"2\";\r\n        }\r\n        return \"3\";\r\n    }\r\n\r\n    function getLoginDetails(address payable _user_add)\r\n        public\r\n        view\r\n        returns (\r\n            string memory,\r\n            string memory,\r\n            string memory,\r\n            string memory\r\n        )\r\n    {\r\n        return (\r\n            UserStore[_user_add].name,\r\n            UserStore[_user_add].typeID,\r\n            UserStore[_user_add].addressUser,\r\n            UserStore[_user_add].coords\r\n        );\r\n    }\r\n\r\n    function getUserCount() public view returns (uint256) {\r\n        return userCount;\r\n    }\r\n}\r\n",
  "sourcePath": "C:\\Users\\garun\\OneDrive\\Desktop\\BloodDaan1\\BloodChainX\\src\\contracts\\Bloodtoken.sol",
  "compiler": {
    "name": "solc",
    "version": "0.8.18+commit.87f61d96.Emscripten.clang"
  },
  "schemaVersion": "3.4.16",
  "updatedAt": "2024-04-02T19:45:45.683Z",
  "networkType": "ethereum",
  "devdoc": {
    "kind": "dev",
    "methods": {},
    "version": 1
  },
  "userdoc": {
    "kind": "user",
    "methods": {},
    "version": 1
  }
}